:0200000460009A
:100000004643464200000156000000000103030081
:1000100000000000000000000000000000000000E0
:1000200000000000000000000000000000000000D0
:1000300000000000000000000000000000000000C0
:1000400000000000010408000000000000000000A3
:100050000000200000000000000000000000000080
:100060000000000000000000000000000000000090
:100070000000000000000000000000000000000080
:10008000EB04180A063204260000000000000000FD
:10009000050404240000000000000000000000002F
:1000A0000000000000000000000000000000000050
:1000B0000604000000000000000000000000000036
:1000C0000000000000000000000000000000000030
:1000D00020041808000000000000000000000000DC
:1000E0000000000000000000000000000000000010
:1000F0000000000000000000000000000000000000
:10010000D8041808000000000000000000000000F3
:100110000204180804200000000000000000000095
:1001200000000000000000000000000000000000CF
:10013000600400000000000000000000000000005B
:1001400000000000000000000000000000000000AF
:10015000000000000000000000000000000000009F
:10016000000000000000000000000000000000008F
:10017000000000000000000000000000000000007F
:10018000000000000000000000000000000000006F
:10019000000000000000000000000000000000005F
:1001A000000000000000000000000000000000004F
:1001B000000000000000000000000000000000003F
:1001C000000100000010000001000000000000001D
:1001D000000001000000000000000000000000001E
:1001E000000000000000000000000000000000000F
:1001F00000000000000000000000000000000000FF
:10020000FFFFFFFFFFFFFFFFFFFFFFFFFFFFFFFFFE
:10021000FFFFFFFFFFFFFFFFFFFFFFFFFFFFFFFFEE
:10100000D10020433110006000000000000000000B
:101010002010006000100060B02A01600000000095
:0C10200000000060A83601000000000085
:10103000764B4FF42A01764A76482DE9F0475A64F8
:101040001864754A99639546744A03F530337449B8
:1010500008208A42C3F854010FD0724B9A420CD236
:10106000D4430846234423F0030304330B4450F8CD
:10107000041B984242F8041BF9D16B4A6B498A421F
:101080000FD06B4B9A420CD2D4430846234423F032
:10109000030304330B4450F8041B984242F8041B2A
:1010A000F9D1644A644B9A420BD2D04311460024D2
:1010B000034423F003030433134441F8044B8B42ED
:1010C000FBD15E4A4FF470015D4B116003F5307146
:1010D0005C4A43F8042F9942FBD15B4B80215B4A69
:1010E00003F8011B9342FBD1594C4FF08037594E06
:1010F0004FF0FF32DFF89CA10025574BDFF89891A5
:10110000DFF89881C3F800A0C4F80471C4F8009116
:10111000C4F8F470C4F8F080F3693C4923F07F030D
:1011200043F04003F361736A23F07F0343F040030D
:1011300073628A66CA660A674A6700F075F9474AA9
:101140006320474B4749106003221D60CAF83810DE
:1011500043F8082C4449454A4548C3F8082D0B6814
:10116000444A43F08073CAF83C0043480B6013685C
:10117000424943F00103136003680B6000F0C6F9B5
:10118000C4F804713E48C4F80091C4F8F470C4F87F
:10119000F08000F031FBF16E3A4A41F440513A4B95
:1011A000F1661560C2F80851C2F81851C2F828510A
:1011B000C2F838519A6BD20708D442F61562334907
:1011C00059651A659A6B42F001029A632E4A304CB7
:1011D000936843F00113936000F01EFB2368132B08
:1011E000FCD900F053FA00F0F3F800F011FB00F026
:1011F000BFF900F021FB2368B3F5967FFBD300F025
:1012000013FB00F0FDFA30BFFDE700BF00C00A404D
:10121000AFAAAAAA070020000000072000000000D3
:10122000941C006068F600000000002000130160BC
:10123000B0170020B0170020E044002088ED00E047
:10124000FC2B0020198C000000E400E0A0E400E08A
:1012500000800D4000C00F4008ED00E014E000E009
:1012600018E000E091AC0000FCED00E00000202060
:1012700095AC0000001000E0041000E00420002005
:101280000046C3230040084000400D400000C05607
:101290000C200020002C00201B1018200C0D111316
:1012A00010B41BB9134B1B6F9B0420D400F03F00FC
:1012B000104B22F0604221F0604140F489101C463E
:1012C0001867C3F88010C3F890201A6F22F4805278
:1012D0001A67236F074A002BFBDAD2F87011064B0E
:1012E0000B40C2F87031136F23F4803313675DF83D
:1012F000044B704700800D40FF7F7FFF2DE9F041D8
:101300002F4F002542690124B96B4FF0020E166879
:101310004FF4303821F47C010369DFF8B0C041F4A8
:101320008021B96331685768394331604FF001114A
:10133000244EC3F810E01D61C3F848C05C629E6291
:101340004FF66106C3F82C809F6C1F651D6299657E
:101350001C61017E1C4B02EB0111097A03EB0111A8
:1013600089680E60017E02EB01110C7ACD6803EBF7
:10137000041149680D60017E02EB01110C690CB18A
:1013800049692160417E4FF6610402EB011191F839
:10139000281003EB011189680C60417E02EB0111FA
:1013A00091F82840C96A03EB04135B681960437E17
:1013B00002EB0312136B0BB1526B1A60BDE8F081A4
:1013C00000C00F40B80B0505340700203B37281933
:1013D000114B1249D86E0A4640F4403030B4D866FA
:1013E00040F23765D86EA02440F44070D8664D6452
:1013F0008C64936C1B06FCD4094B40F23760A0212F
:101400001A4658649964936C13F08003FBD1054A23
:10141000137030BC704700BF00C00F4000400C404C
:1014200000800C4000200020F0B5244A0020244B0E
:101430004FF0100C234C1126DFF8C8E01227206073
:101440000125C2F800C0C3F800E01660DFF8B8E07C
:101450001D4EC3F800E01D4917601E6041F01501E4
:101460001B4F1C4E17601E601B4F1C4E17601E60EA
:101470001B4F11601B4E1C491F6016601B4F1960EB
:101480001B4E1C4917601E601B4F11601B4E1C49F0
:101490001F60166019602560BFF34F8FBFF36F8F19
:1014A000C3F8B001BFF34F8FBFF36F8F52F8883C82
:1014B00043F4403342F8883CF0BD00BF9CED00E0AF
:1014C000A0ED00E094ED00E009001000E0440020F1
:1014D000130020002100020714000020250008133B
:1014E000090000101600202027000B1317000040F1
:1014F00033001013180000602F000B071900007054
:101500002F000B133F00001025000803F0B4174A0A
:1015100040274FF480314FF480564FF400554FF47C
:10152000404443F24200136913F0020F06D0946165
:1015300051619061136913F0020FF8D113F4005F49
:1015400001D15561EFE713F4805F01D15661EAE7FD
:10155000002BE8DA13F4803F01D09161E3E75B06EA
:1015600001D45761DFE7F0BC704700BF00800D4039
:101570003B4AF3EE096A3B4900201368F0B523F0BB
:1015800001030324DFF800E11360C2F89040D1F8B2
:10159000E030354FDDB2C3F30B24344EC4EB1353AC
:1015A00007EE905AA5F15501CEF80050B8EEE77A53
:1015B00003EB830507EE904A03FB01F13B6003EB6D
:1015C0008313B8EEE75A07EE901A491B77EE666A66
:1015D000B8EE677A264D07EE901A0B44C5ED006A07
:1015E000F8EE677A3460C7EE265A224E1568224913
:1015F000224C87EEA66A07EE903A214BC6F840319E
:10160000F8EE677A87EEA67A75EE855A76EE056A69
:10161000FCEEE55AFCEEE66A15EE903A45EA035315
:1016200016EE905A77EE057A136001EA0541D2F87A
:101630001031FCEEE77A0B43C2F8103117EE903A06
:10164000D2F81011C3F30B030B43C2F81031136827
:1016500043F00203136020700A4B01221A60F0BDB0
:1016600080810D4000441F40382000203C20002095
:1016700034200020002C00200000FF0F40E400E098
:10168000F98C000008E100E030200020304B40F6EB
:10169000617270B5C3F8202140F2044500F0C0F833
:1016A0002C492D48D1F880202C4C42F003022C4BC1
:1016B000C1F88020C0F86051226813401BB9D0F8EF
:1016C000A8319A071AD0244B4FF00041234A5163A6
:1016D0001A46D3F8401141F00201C3F84011D2F884
:1016E00040319B07FBD44FF400301E491B4B4FF099
:1016F0000042086019209A6300F086F81A4D002213
:10170000164B4FF08041144C0A26996328461A6004
:101710001146C4F8A8614FF4607200F089F84FF4E4
:1017200081064FF4800040F24313104A10492E60A6
:101730002864C4F85851C2F80412C4F848310D4A5C
:101740004FF4003101231160C4F8403170BD00BF77
:1017500000800D4000C00F4000002E4000900D4062
:10176000001C1E008CE200E000400020002C002045
:101770000D8F00000CE100E0B1F5606FF0B428BF00
:101780004FF4606172B60025134B144F144E2C4673
:1017900003F5E0723860358043F8044F9342FBD183
:1017A000B1B100230F4E01275D0903F01F0401337F
:1017B00056F8252007FA04F48B4242EA040246F860
:1017C0002520F1D100234380013344308B42FAD1EC
:1017D00062B6F0BC704700BF4424002008260020F9
:1017E0000E26002048240020F8B500BFF8BC08BC35
:1017F0009E467047000000005FF800F0B5800000D2
:101800005FF800F011AD00005FF800F07983000090
:101810005FF800F0618900005FF800F0318C000093
:101820005FF800F0F59800005FF800F0D1B9000013
:101830005FF800F0ADC100005FF800F0358C0000EB
:101840004500000005160000711C0000791D000015
:1018500029210000412100005921000071210000D0
:1018600089210000A1210000B9210000D121000040
:10187000E92100000122000019220000D12500000A
:10188000E92500000126000019260000312600008D
:1018900049260000612600007926000091260000FC
:1018A000A9260000C1260000D9260000F12600006C
:0418B00029320000D9
:1018B40080C00F4000000003190000001000000069
:1018C400E8841F4001000000FF000000FF0000004A
:1018D40000000000000000001800000010000000DC
:1018E400E4841F4001000000FF000000FF0000002E
:1018F40000000000000000001F00000070C00F4046
:10190400000C00001100000011000000E0841F40E2
:10191400020000002400000012000000E0841F40C8
:10192400010000001000000011000000DC841F40D2
:10193400020000002500000012000000DC841F40AB
:10194400010000001E00000070C00F40C000000035
:101954001200000013000000D0841F4001000000AA
:10196400FF000000FF000000000000000000000075
:101974001300000013000000CC841F40010000008D
:10198400FF000000FF000000000000000000000055
:101994001C00000024035400650065006E00730001
:1019A400790020004D004900440049002F00410007
:1019B4007500640069006F00180354006500650039
:1019C4006E00730079006400750069006E006F009A
:1019D4000403090409025501060100C032080B0082
:1019E40002020201000904000001020201000524B0
:1019F4000010010524010101042402060524060047
:101A0400010705820310001009040100020A000006
:101A14000007050302400000070583024000000997
:101A2400040200020103000007240100012500064E
:101A34002402010100062402020200092403010316
:101A44000102010009240302040101010009050443
:101A5400024000000000052501010109058402403F
:101A6400000000000525010103080B030301010028
:101A7400000904030000010100000A240100013EE2
:101A8400000204050C240201020600020300000007
:101A94000924030201010001000C240203010100D6
:101AA40002030000000A24063103010102020009B6
:101AB40024030402060031000904040000010200AA
:101AC40000090404010101020000072401020301CA
:101AD400000B2402010202100144AC00090585092F
:101AE400C4000100000725010000000009040500EE
:101AF400000102000009040501020102000007249C
:101B040001030301000B2402010202100144AC0092
:101B140009050505C4000100860725010000000031
:101B240009058611030001050000000009025501A2
:101B3400060100C032080B00020202010009040081
:101B44000001020201000524001001052401010125
:101B5400042402060524060001070582031000057B
:101B640009040100020A0000000705030200020044
:101B740007058302000200090402000201030000B9
:101B840007240100012500062402010100062402A5
:101B940002020009240301030102010009240302D3
:101BA40004010101000905040200020000000525EA
:101BB400010101090584020002000000052501015C
:101BC40003080B03030101000009040300000101E1
:101BD40000000A240100013E000204050C24020155
:101BE40002060002030000000924030201010001AF
:101BF400000C24020301010002030000000A240671
:101C04003103010102020009240304020600310029
:101C14000904040000010200000904040101010296
:101C24000000072401020301000B24020102021038
:101C34000180BB0009058509C400040000072501D3
:101C44000000000009040500000102000009040569
:101C5400010201020000072401030301000B240216
:101C6400010202100180BB0009050505C40004003F
:101C740086072501000000000905861104000407F9
:101C8400000000000A060002EF020140010001000A
:101C94000000000000000000000000000000000040
:101CA4000000000000000000000000000000000030
:101CB40010B5054C237833B9044B13B10448AFF382
:101CC40000800123237010BDB01700200000000025
:101CD40064F60000084B10B51BB108490848AFF37F
:101CE40000800848036803B910BD074B002BFBD0E4
:101CF400BDE81040184700BF00000000B4170020E2
:101D040064F60000B01700200000000010B504467F
:101D1400E4300AF01BFD04F1D0000AF017FD04F1D1
:101D2400BC000AF013FD04F1A8000AF00FFD04F151
:101D340094000AF00BFD204610BD00BF10B501242D
:101D4400054B064821461C7001F042FD2146042043
:101D5400BDE8104008F024BAFC1900209C180020AB
:101D640010B50024054B064821461C7001F030FDD7
:101D740021460420BDE8104008F012BAFC190020E6
:101D84009C18002010B50124054B052021461C7029
:101D940008F006FA21460348BDE8104001F02EBDC4
:101DA400D51700209C18002010B50024054B0520F1
:101DB40021461C7008F0F4F921460348BDE81040A0
:101DC40001F01CBDD51700209C18002008B5002088
:101DD40008F08AFAA52800D008BD0F2008F084FA7C
:101DE4000028F9D1012008F07FFA224B1870022054
:101DF40008F07AFA204B1870032008F075FA1F4B8C
:101E04001870042008F070FA1D4B1870052008F0B3
:101E14006BFA1C4B1870062008F066FA1A4B1870FF
:101E2400072008F061FA194B1870082008F05CFAD2
:101E3400174B1870092008F057FA164B18700A202F
:101E440008F052FA144B18700B2008F04DFA134B9B
:101E540018700C2008F048FA114B18700D2008F087
:101E640043FA104B18700E2008F03EFA0E4B18700F
:101E740008BD00BF260D0020901800203E0D002054
:101E8400350D0020220D0020CC170020230D00204A
:101E94003C0D00206C18002099180020360D0020FD
:101EA400DC170020340D0020E40C00201F48204AD9
:101EB400F8B540F2EE2604681E4D1F4F13783BB16F
:101EC4002B78DB0704D5036839685B1A0E2B06D818
:101ED400036811781B1B29B3B3F5FA6FEED90221FD
:101EE400084608F069F90221002008F065F902218A
:101EF400012008F061F90121042008F05DF90021B6
:101F0400042008F04DF90121052008F055F90520B9
:101F1400002108F045F9FFF759FF0848BDE8F840EB
:101F240001F0CCBCB342C9D9D9E700BF0C200020D2
:101F340078200020A8230020B44400209C1800200E
:101F4400014B1870704700BF90180020F0B51D4D6C
:101F54002E683418802C33DC1B4C1C4FD4F800C082
:101F64000CF1010E07F80C10BEF17F0FC4F800E06D
:101F740001DD00212160711C0128296019DD21681F
:101F8400DFF844E07A544A1C7F2A226002DD0022F2
:101F9400CEF80020B11C022829600AD021680A4822
:101FA4004A1C7B547F2A226001DD00230360F11C5C
:101FB4002960552904DD064A137843F001031370A0
:101FC400F0BD00BF94180020F0190020EC17002089
:101FD400240D002009490B68002B0EDD0848013B45
:101FE40002680B60013A48BF7F22552B026004DC73
:101FF400044A137823F001031370704794180020E7
:10200400F0190020240D00200D490B68002B15DD6C
:102014000C4A106830B4441C0B4D7F2C285C1460AF
:1020240001DD00241460013B552B0B6004DC074ADE
:10203400137823F00103137030BC704700207047FD
:1020440094180020E0170020EC170020240D002035
:10205400AF4AB04B2DE9F04F4FF4966511781B78D9
:1020640083B0AD4A03EB4303AC4C127895FBF1F516
:1020740005FB03F30A2A84FB03044FEAE373C3EB6F
:10208400241440F23C81914240F23981C5EB45135E
:1020940040F65646A24996FBF2F281FB0301DB1798
:1020A400A3EBE1069F4B16441B7806EB4607322B45
:1020B400C6EBC606A7EB0507A6EB070600F02681CC
:1020C400323B964905FB03F281FB0213D217C2EBA4
:1020D400231305EB03091C44ED1A934B1B7813B12E
:1020E40099441C44ED1A914BDFF890A21A789AF89F
:1020F4000030002A00F0EF80D90740F1EC8002EBB9
:1021040082024FEA42088A490A783AB9894B1B7815
:1021140023B9894B1B78002B00F03681DFF860B2BD
:102124009BF80030082B40F23381844F4FF0010CB0
:10213400834D002087F800C0DFF838E2814F2C6817
:10214400CEF80000386008EB04027F4BDFF834E27D
:102154007E4F1A608BF80000CEF800003870A2425F
:102164000CD89AF80020D00708D5794A12782AB1F9
:102174008DE80A00FFF718FE9DE80A00754F97F8EE
:1021840000E0BEF1000F29D073482A68006800EB14
:102194004900904239D2714C4FF0010C704A212011
:1021A4000CFA0EFC94F800E04CEA0E0C5FFA8CFC7E
:1021B40084F800C002E001305B280CD012F801EF73
:1021C400E645F8D1674A1278520604D5664A127871
:1021D400002A40F04283002222703A70634C227835
:1021E4009AB95D4809EB49092A68006800EB490976
:1021F40091450AD25B4A1278500604D55A4A12789D
:10220400002A40F03283012222700A786AB33A78B5
:102214000121524C4FF0000E01FA02F00A442178D9
:10222400DFF82CC101433A702A68217006211A6034
:102234009CF800C04D4A8BF8001082F800E0424C34
:10224400DFF8FC80BCF1000F0FD19AF80020D10711
:102254000BD50093FFF796FD45480A21D8F80020D6
:102264000078009B11FB00222260324A1278F2B1FE
:102274003A7805203649002401328BF800000978A9
:102284003A702868394A186014702D4F2E4C71B971
:102294009AF80020D2070AD50093FFF773FD34485B
:1022A4000A213A680078009B11FB00222260224A2E
:1022B4001278002A40F026822E4B1B68002B07DD83
:1022C4009BF8003023B9214B1B78002B00F0D681FA
:1022D40003B0BDE8F08FC3F30113022B00F00882B2
:1022E400032BC9EBC90863D0012B7FF40CAF4FEA71
:1022F4008803214A82FB0328A8EBE37803E7094B10
:102304006F00AE001B78322B7FF4DAAEA946E4E608
:102314006F180020340D0020360D00201F85EB516E
:10232400F31ACA6B350D002099180020CC17002031
:10233400F41900209118002070180020270D0020A7
:10234400D8170020F0190020881800206D180020EC
:10235400D5170020051A00207C18002085180020BD
:10236400E70C0020260D00206E180020250D00200B
:10237400220D00209418002056555555E40C0020D9
:1023840071180020E0170020DFF8ECB29BF8003051
:102394000B2B91D8DFE813F071023C012801FC00FB
:1023A400D900C000A7008700600045002D000F0081
:1023B4004FEA4808A7E6A04FA04B3A6819688A423A
:1023C40086D39F4D2978012900F007829D48007823
:1023D400002800F01B8211F0010F4FF00A004FEAB1
:1023E400510108BF4C468BF80000297014441C604E
:1023F4006EE7914C914B226819688A42FFF468AFEA
:1024040090490978002940F0D8818D4915448B48BA
:102414000A781D60012A00F0ED810B238BF800304F
:1024240056E7854D854B2A6819688A427FF650AF76
:1024340084490A2009788BF80000002900F0B7814C
:102444007F4D297811F0010F4FEA510108BF4C4626
:10245400297022441A602FE77B4B1B78002B7FF4F2
:1024640037AF754C774A2368784912780B60002A95
:1024740040F0A981764A126802EB45059D4280F03E
:102484008C81744D0121744C2A7801FA02F0217870
:10249400013201432A7021704344684900220B60D1
:1024A4008BF800209AE0644C002364496B4F6C4D18
:1024B400226808683B702B7082426A4F6A4D3B70F9
:1024C4002B70FFF4F9AE604B1B78002B00F06A818F
:1024D4005C4B08211B788BF80010002B00F09D81C9
:1024E4005B4B1A60E8E6544B544A1B6811688B42F4
:1024F400FFF4EEAE5D491C44524B02270D780021D7
:1025040014605748584A1B788BF800700570117096
:10251400002B7FF4DDAE15E04749484B0C68196881
:102524008C42FFF4D5AE4C44464901254D481C600D
:1025340000244A4B09788BF8005004701A70002963
:102544007FF4C6AEFFF7FAFBB6E63B493B4B08689F
:10255400196888427FF6BCAE444909783AB931B962
:10256400434C247804F03004102C00F067813E4C76
:1025740024782CB921B93A490978002900F051810D
:10258400344A052113788BF80010013313709FE649
:1025940029492A4B086819688842FFF499AE3349DF
:1025A4000C783AB934B93249097801F0300110296C
:1025B40000F040812B490978002940F0E080002A8E
:1025C40040F0DD80254A1278002A40F0D880002CA3
:1025D400D6D1421B8BF8004042441A60254B1B683D
:1025E400002B3FF770AE73E6134A144B11681A6858
:1025F4009142FFF46DAE1348144C0078216000281A
:1026040040F0E580154404221D608BF800205FE64D
:10261400094A0A4B11681A689142FFF44DAE094801
:102624000A4C00782160002840F08D801544032274
:102634001D608BF800204BE6D81700208818002076
:102644002C0D0020FC190020701800207C1800209C
:10265400E8190020051A002085180020841800209D
:10266400081A0020D4170020091A0020911800200D
:10267400260D00209418002071180020FFF7C4FCD8
:10268400C0B21F283FF424AE202866D01B2860D097
:10269400A0F161030446192B52D9A4F12103382B6C
:1026A4003FF616AE774B1B785A0700F1AB8076489D
:1026B400764A204410F8213C012B13703FF408AEF5
:1026C400734D744B2A68744C1B78226063B99AF872
:1026D4000030DB0708D5FFF755FB70492B680A2249
:1026E400097812FB0133236009238BF80030EFE5EE
:1026F40009EB89086A4AC8EBC80382FB0328A8EBE4
:10270400E37800E52C680021624A07201C601278F7
:10271400644B8BF8000019705F4C5D4D002A7FF408
:10272400D7AD9AF80030D8077FF5D2ADFFF72AFB72
:102734005A492B680A22097812FB01332360BBE54E
:102744002038C4B2A9E70093FFF70AFB009B1A687C
:102754006CE7554B01221A70BAE54A4B1B785907AE
:1027640001D509F04FFE4A4B01204B4A0B241B684C
:1027740046491E448BF8004008701660A8E54B4C8F
:1027840001224B480625237801789A4001330A43F5
:102794008BF80050237002709AE544490A7801329C
:1027A4000A7079E642448BF800300A6016E7009319
:1027B400FFF7C4FA2A68009B42E60093FFF7D0FAB9
:1027C4002268009B21E6FFF7CBFA236852E60093C8
:1027D400FFF7C6FA009B1A6814E736490020096817
:1027E4008BF8000081427FF773AD09EB4904224462
:1027F4001A6068E52C4B1A780AB93D44056000223A
:102804001A700AE6204609F0FDFD50E70093FFF731
:1028140095FA3A682978009BDDE5FFF78FFA22687C
:102824005EE69AB1214C01212148062523780278DD
:102834009940ABE7204900270F70BBE61F4A0024EC
:102844001F4912780C70002A7FF49AAE421B0021B3
:1028540042448BF800101A60C0E6C0B28DE80A004A
:1028640009F0D0FD9DE80A00B5E420208DE80A00B7
:1028740009F0C8FD9DE80A00C5E4074B044D1A6839
:102884002C686CE4260D0020E80C00202C0D0020A0
:10289400D8170020D517002088180020220D00200A
:1028A40056555555250D002098180020051A00206E
:1028B400851800209418002084180020091A00208C
:1028C400081A00202DE9F041AB4E3378073B1D2B4D
:1028D4003FD8DFE813F0E300EC003E00F1003E00D7
:1028E4003E003E003E003E003E003E003E003C00F6
:1028F4003E00FD003E003E003E003E003E003E0025
:102904003E003E003C003C003E003E003E00040110
:102914001E000023994C1846236007F0E5FC09F0DB
:1029240071FD142007F070FB2068944B01300F28D0
:102934002060F2DD10221A60002009F063FD1420EB
:1029440007F062FB23680133FF2B2360F4DD2023AF
:10295400337009F007FD002833D1894B894C1A786C
:102964009AB9894B20781A7800F0FD032370002A65
:1029740032D100F0F9002070844D2B6898420ED0BB
:10298400834B1B7863BBBDE8F081207800227F4D28
:1029940040F002001A702B6820709842F0D17D4DEF
:1029A4007D4C287823689842EDD0794B1B78002B16
:1029B400E9D080F0800009F025FD2B782360BDE884
:1029C400F081734C09F00EFDC2B223786BB93378F1
:1029D40062B1202BD7D009E043F004002070CBE78C
:1029E40009F010FD23782B60D9E73378282B00F207
:1029F400C08001A151F823F0971000007B10000063
:102A0400351000001F1000005D1000003F10000092
:102A140071100000E30E0000E30E0000151000002A
:102A2400E30E0000A30E0000E30E0000FF0F000001
:102A3400F50F0000A30F0000990F00008F0F000096
:102A4400E30E0000E30E0000E30E0000E30E0000BE
:102A5400510F00005D0F0000E30E0000E30E0000C4
:102A6400E30E00002D0F0000E30E0000CB0C00006D
:102A7400E30E0000E30E0000410F0000E30E00002F
:102A8400730F0000E30E0000E30E0000E30E0000ED
:102A94007F0F00007F0F0000E11000003D4B18780D
:102AA40080F0800009F0AEFC2023337051E7FFF77B
:102AB40091FA202333704CE70023384D384C202200
:102AC400384839492B60236003600B70327040E74B
:102AD4002C4B187809F096FC2023337039E7274CE7
:102AE4000023A046236009F03DFC0028FBD009F038
:102AF40079FC2568C7B2284607F0F6FB87423946B9
:102B0400284603D007F0EEFCD8F8005001351B4BE3
:102B14000F2D2560E7DD10221A6009F023FC002840
:102B2400FBD009F05FFC23680133FF2B2360F4DD45
:102B34000DE7002A00F004821C4A002317490120F3
:102B440012780B60164FD207164D174C18493B608C
:102B54002B602370087007D5164B1B780BB9FFF751
:102B640011F9322007F050FA134B1B780BB9FFF719
:102B7400E5F820233370F0E63D0D002074180020A2
:102B8400270D0020240D002071180020280D00209E
:102B94006E180020E8170020380D0020941800203B
:102BA400F0190020E01700206D180020E40C00202C
:102BB400041A0020D5170020FC190020B94B19680D
:102BC400002940F0D381B848012102701960C4E69D
:102BD4001F2A00F2D581B34B002132701960BCE684
:102BE400032AC6D8DFE802F0DAD7D4D1202A40F28B
:102BF400B481432A28BF4222AC4920230A7033708F
:102C0400ABE6104609F0FEFB20233370A5E60AB1BB
:102C1400013AD2B2A64920230A6033709DE6A54941
:102C240020230A70337098E6A34920230A70337076
:102C340093E69C490B68581C08600E2B3FF68DAE3A
:102C440001A151F823F000BF871200008112000097
:102C5400691200000F120000931200008D12000090
:102C64005710000025110000AB120000A51200004F
:102C74009F120000991200000912000003120000C4
:102C8400E30E00008D4920230A70337065E6092A9B
:102C940040F26581642A28BF6322894920230A708F
:102CA40033705AE6874920230A70337055E6092A9F
:102CB40040F251815B2A28BF5A22834920230A709B
:102CC40033704AE6814920230A70337045E675491A
:102CD4000B68581C012B08606CD0022B3FF449AFE1
:102CE400002B7FF43AAE7A4B1A7036E66D4B1968B6
:102CF400002940F0368177480121027019602CE6E2
:102D0400754920230A70337027E602F00F034FF44D
:102D14007A61724C7248227091FBF3F100F0A8FDC5
:102D24002023337019E60E2A3FF617AE01A353F899
:102D340022F000BFFD110000EF110000DF110000C0
:102D4400D1110000CB110000C3110000C311000019
:102D540047110000C3110000C3110000E30E00007E
:102D6400E30E00003B11000035110000411100008A
:102D7400002A3FF4FEAE1446002301201A461946E9
:102D8400FFF7E4F8013CF7D1F3E628233370E4E5D8
:102D940027233370E1E526233370DEE50023514D0C
:102DA400434C202250484C492B60236003600B7035
:102DB4003270D2E54D4B1F2A1A707FF6CEAD1F221A
:102DC4001A70CAE523233370C7E524233370C4E59E
:102DD40025233370C1E5394B187809F013FB3B4BBD
:102DE400187809F00FFB3D4B187809F00BFB364BB4
:102DF400187809F007FB374B187809F003FB3C4BB4
:102E0400187809F0FFFA324B187809F0FBFA374BBF
:102E1400187809F0F7FA284B187809F0F3FA254BDB
:102E2400187809F0EFFA264B187809F0EBFA314BD1
:102E3400187809F0E7FA1D4B187809F0E3FA214BEA
:102E4400187809F0DFFA002009F0DCFA2023337047
:102E540083E5002009F0D6FA7FE5222333707CE570
:102E640000232370FEF7B2FF2023337075E501239E
:102E74001520237009F0C6FA202333706DE5202352
:102E84003370FEF7A3FF0023237066E5212333701C
:102E940063E50C4B1A7060E5044B1A705DE50A4B50
:102EA4001A705AE57418002078180020340D002098
:102EB400F0190020991800206C180020260D00201D
:102EC400360D0020E40C0020350D00209018002061
:102ED400230D0020220D00206D1800203E0D00203F
:102EE4009C18002094180020E01700203C0D0020BE
:102EF400CC170020DC17002002F00F034FF47A6196
:102F04002A4C2B48227091FBF3F100F0B1FC24E52C
:102F1400284B1A7021E5284B1A701EE5274B1A70AE
:102F24001BE5274B1A7018E5264B1A7015E5264B3E
:102F34001A7012E5254B1A700FE5254B1A700CE533
:102F4400244B1B787BBB244B1B78DB0721D4234BFE
:102F540000221A700DE60A22AFE621224CE60A226C
:102F64009BE6164920230A703370F6E41C4C134682
:102F74001B2103202278FEF7E9FF20233370ECE4C1
:102F84000023114601201A46FEF7E0FF2023337088
:102F9400E3E40A2007F038F8124B1B78002BD6D054
:102FA400FEF702FFD3E7FEF7DBFECCE73E0D002081
:102FB4009C18002090180020260D0020CC1700201B
:102FC400220D0020DC170020360D00209918002067
:102FD4006C180020FC190020E40C0020041A0020C6
:102FE40078180020D5170020F8B51468844200D959
:102FF400F8BD0646C8B21D4614461F6806F06EFEAC
:10300400C72814DDB0F57A7F1ADD4FF47A7307F11F
:1030140032029A4206DBA7F132029A4202DC43B939
:10302400002F06DD06F114002B602060F8BD00239C
:10303400EDE7B3F57A7FDBD1B7F57A7FF2DBD7E73B
:103044000A2303FB00F3A3F5FA63DB10DFE700BFF9
:103054002DE9F041714B724F18683B68714C834203
:10306400714E2060714D12D83078C0F3C00007F063
:103074009DF8B0FA80F3297802465B0920688B42F8
:1030840005D02B7000F10A033B60002A77D0DFF8EB
:10309400FC81D8F8003083424BD9654FDFF8F081CA
:1030A400D8F80030834233D933783A7803F03003C8
:1030B4002D786049604E302B0A70357056D0002A46
:1030C40018BF002D08D0202B06D15C4B1B78002B99
:1030D40000F0A18000233370594B1021594AFFF7A7
:1030E40083FF594B1121594A2068FFF77DFF584A45
:1030F4001378591C1170092B06D8DFE803F04661D8
:10310400696183618761076100231370BDE8F08101
:10311400022007F04BF84F4AB0FA80F32068117888
:103124005B098B42C0D0137000F10A03C8F8003069
:10313400BAE730783E4F80F00800C0F3C00007F0D3
:1031440035F8B0FA80F3397802465B0920688B427F
:10315400A4D03B7000F10A03C8F80030002A9DD1C6
:1031640001233D49354A0B70137097E7394D00260A
:10317400394F2B783E701A430E702A70ACE73749EA
:1031840001272E4B0F701A7081E7354B2C4A1B78A0
:103194001268344902FB03F3334C344881FB0312B5
:1031A400DB172178C3EBA213314ADBB21170037031
:1031B4000029ABD12F4909780B441370BDE8F08185
:1031C4002D4B1B78002BA1D1BDE8F041FEF740BF89
:1031D4002A4A1D4B1278196802F0020202F0FF031A
:1031E4002AB1274BCA1783FB0113C2EB2313254AC9
:1031F40011688B428AD0194623481360BDE8F04118
:1032040000F010BBBDE8F041FFF75CBB1E48BDE811
:10321400F04100F01BBA0B705EE700BF0C200020E9
:10322400F8190020D8170020260D0020DD170020F3
:10323400061A0020F419002091180020071A002013
:10324400D0170020EC19002080180020E41700207B
:103254007218002070180020D4170020091A0020CA
:103264003C0D0020D34D621090180020E817002078
:103274006F180020230D0020041A0020E40C002005
:103284001F85EB51300D00209C1800208C18002065
:10329400001A00202DE9F843894E06F0FFFF894CFF
:1032A4000023894F32686372276023612372E360CD
:1032B4000AB9F6E01A465369002BFBD15461002584
:1032C400824B804823606561A580E580A57209F082
:1032D400C1FC326884F82150A56284F820506562EC
:1032E400A761774B0AB9DEE01A465369002BFBD17C
:1032F400DFF81482C2F814800020754DDFF80C92B8
:103304004FF4804C4FF0030E0346E0620146A08365
:103314002A46E08384F8220084F84400A064A5F1DE
:103324005400E763E564C4F81890C4F838C084F81E
:1033340045E000E0C26C42F82310013394F84520C4
:103344009A42F7DC32685E4B0AB9B1E01A46536917
:10335400002BFBD15F4D55610020DFF8B4E1DFF8AD
:10336400B4914FF0240CA76602270346206501465A
:10337400A4F84000A4F84200724684F8460084F899
:10338400600084F8640084F870006067AEF1800027
:10339400C4F878E0C4F83C90A4F862C084F8717072
:1033A40000E0826F42F82310013394F871209A42AE
:1033B400F7DC3268424B0AB97DE01A465369002BA8
:1033C400FBD1DFF81891C2F814900026424B434811
:1033D4000127A366E667A4F86C60A4F86E6084F81D
:1033E400726000F0CFFE3E4A0A233E48C4F88820AB
:1033F40084F8903084F89C6084F89D60C4F8A060E0
:1034040084F8A460C4F89440C4F8985009F06AF9A8
:103414003548C4F8B46084F8B860C4F8A840C4F867
:10342400AC5084F8B07084F8B17009F05BF90223F1
:103434002E4884F8C46084F8C530C4F8C86084F8A1
:10344400CC60C4F8BC80C4F8C05009F04BF92848DB
:1034540084F8D86084F8D960C4F8DC6084F8E0604B
:10346400C4F8D050C4F8D49009F03CF9214884F849
:10347400EC7084F8ED70C4F8F06084F8F460C4F87B
:10348400E450C4F8E89009F02DF954221A491B4875
:1034940006F08AFB1A4A1B490A48BDE8F84309F0BA
:1034A40041BF34600BE7DFF86080C3F8008023E796
:1034B400084D1D6050E7DFF82490C3F8009084E7BE
:1034C400442400209C18002008000020280A002022
:1034D400F0180020D8180020A404002004190020AB
:1034E40078040020301900204419002058190020C5
:1034F4006C190020801900200C0000209419002071
:10350400E00C00207D000000B41800201806002004
:103514001C190020680000202DE9F0410446002118
:1035240009F0D4F801210746204609F0CFF802211A
:103534000646204609F0CAF894F8243080461BB9A0
:1035440094F82830002B41D0B8F1000F3ED009F098
:1035540025F8054668B394F82430002B4BD008F1C5
:1035640004000022DFF8E0E094F82810B0F90030FD
:1035740011F0800F01F1010C07D15EF821105B00FE
:1035840084F828C053FB01F31BB205EB420101325E
:103594000230202A8B80E7D100222946204609F0F8
:1035A4007BF820460122294609F076F8284609F0DE
:1035B40049F8404609F046F817B1384609F042F890
:1035C400D6B33046BDE8F04109F03CB8002284F897
:1035D40028201FB13946204609F05EF826B120465E
:1035E4000122314609F058F8B8F1000FE4D0404602
:1035F40009F028F8E0E794F82830802B1ED808F169
:1036040004000022DFF840E001E094F82830591E5D
:1036140053B1B0F90030C9B25B0084F828105EF8E9
:10362400211053FB01F31BB205EB420101320230BE
:10363400202A8B80E9D1AFE7BDE8F08180221346D0
:1036440084F82820DBE700BF6C00002010B5044696
:103654002DED068B9FED538ADFED539A9FED539A20
:10366400DFED538A9FED53AADFED53AA002008F043
:10367400D9F900284ED0514B1B78B02BF6D1504BC2
:103684001B78022BF2D14F4B4F4A1B781278102B28
:10369400ECD801A151F823F0F51A0000DD1900005F
:1036A400DD190000DD190000ED1A0000B71A000052
:1036B4008B1A0000DD190000DD190000DD1900007F
:1036C400DD190000DD190000DD190000DD1900001E
:1036D400DD190000DD1900004D1A00003B49B0EE71
:1036E400497A04F188000B6843EAC21207EE902A73
:1036F4000A60F8EE677A67EE887AA7EEA97AFCEE9C
:10370400C77A17EE901A00F00FFB002008F08AF930
:103714000028B0D1BDEC068B10BD2C490B6843EAE0
:10372400C21207EE902A0A60F8EE677AF4EEE87A9D
:10373400F1EE10FA29DC67EE8A7AFCEEE77A17EEEE
:10374400903A636392E721490B6843EAC21207EE99
:10375400902A0A60F8EE677A67EE887AF5EEC07A06
:10376400F1EE10FA14D4B7EE007AF4EEC77AF1EE63
:1037740010FA0FDD4FF48033A36377E71046FEF7AA
:10378400DFFB73E7114B1A6070E74FF00043D8E793
:103794000023F1E767EEAA7AFDEEE77A17EE903A96
:1037A400EAE700BF0000803800000143EE7CFF3EE2
:1037B4000080BB463EC3AE470000804780430020E4
:1037C4008743002084430020854300200C1A0020F6
:1037D40008B580F8601031B9064808F085F8BDE8EE
:1037E400084008F089B8044808F07EF8BDE80840AD
:1037F40008F082B8088001000990017F08B531B94A
:10380400064808F071F8BDE8084008F075B80448A7
:1038140008F06AF8BDE8084008F06EB808800200B5
:103824000990027F002916DB1429A8BF142100EB9C
:103834008101D1ED3E7AF5EEC07AF1EE10FA0CD4A6
:10384400B7EE007AF4EEC77AF1EE10FA08DD4FF421
:103854008033836370470021E9E700238363704763
:10386400B0EE677ABEEEC87A17EE103A83637047FB
:1038740007EE901AF8EEE77AF5EEC07AF1EE10FA58
:1038840014D49FED0C7AF4EEC77AF1EE10FA03DD4E
:103894004FF00043436370479FED077A67EE877AE2
:1038A400FCEEE77A17EE903A4363704700234363D4
:1038B400704700BF0080BB463EC3AE4770B50446A8
:1038C40010210B4840250DF00BFD04F1880643F24E
:1038D40033330849084A30460D60A363626300F03D
:1038E400EFF93046672100F01FFA044B1D6070BDEC
:1038F4000000202088E100E04044440408E100E0A6
:1039040006F0CCBC2DE9F04F00F1400EB1E8A00A5E
:10391400B2E84015C5EA0643C6EA2544C7EA0845A5
:10392400C8EA2746C9EA0A47CAEA2948CBEA0C4941
:10393400CCEA2B4AA0E8F8078645E7D1BDE8F04F6A
:1039440070474FF000022DE9F00F00F1400C00BF6A
:10395400B1E8A00AC5EA0203C2EA2544C7EA02059F
:10396400C2EA2746C9EA0207C2EA2948CBEA0209A1
:10397400C2EA2B4AA0E8F8078445E9D1BDE8F00F74
:1039840070474FF000022DE9F00F00F1400C00BF2A
:10399400B1E8A00AC2EA0543C2EA0504C2EA07453F
:1039A400C2EA0706C2EA0947C2EA0908C2EA0B49A1
:1039B400C2EA0B0AA0E8F8078445E9D1BDE8F00F94
:1039C40070472DE9F00F089C00F1800B51F8045B5F
:1039D40053F8046BC5EA0647C6EA254952F8045B66
:1039E40054F8046BC5EA0648C6EA254AA0E88007ED
:1039F4008345EBD1BDE8F00F704700BF10B5044616
:103A040008F052FF204610BD024A0349034809F05A
:103A140089BC00BFE00C00206D1D0000101A0020BE
:103A24000020704700207047F8B50125027A1E4C2B
:103A34000E46AA40C1F307210746204684F83D20DC
:103A440084F8605084F85F5005F0CEFEF1B2204651
:103A540005F0CAFE2046002105F0A6FF08B10020AB
:103A6400F8BD2B46397A0222204606F00DF80128CB
:103A7400F5D994F83A1094F83B50A94210D24A1C54
:103A84006318D2B2987E954284F83A204FEA002314
:103A940006D922440231907E84F83A101843F8BDC6
:103AA4004FF0FF30F8BD00BF400D0020F8B50125F0
:103AB400037A144C242903FA05F30E4608BFC28086
:103AC4001746C1F30721204684F83D3084F860503E
:103AD40084F85F5005F088FEF1B2204605F084FEBC
:103AE400C7F30721204605F07FFE2046F9B205F012
:103AF4007BFE2946204605F057FFB0FA80F04009C6
:103B0400F8BD00BF400D00202DE9F041044669488E
:103B14000E4617460DF0D8FB052006F075FA204630
:103B24000621FFF781FF351C18BF0125B02818BFF7
:103B3400002535B100220123227163722846BDE8B5
:103B4400F0814FF0010844F260023021204684F8ED
:103B54000480FFF7ABFF05460028EFD06C22262136
:103B64002046FFF7A3FF4FF4F97228212046FFF700
:103B74009DFF40F622722C212046FFF797FF44F266
:103B840046423C212046FFF791FF40F237122421A0
:103B94002046FFF78BFF002E6BD0474B3421204685
:103BA4009E428CBF42460022FFF780FF07EE907AC8
:103BB400DFED426A3221B8EE676A07EE906A20466A
:103BC400F8EE677AB7FBF6F686EE277A06F01F0260
:103BD40007EE902AF8EEE77A77EE677A67EEA67A30
:103BE400FCEEE77A17EE903AC3F30A0343EAC222E3
:103BF400FFF75CFF44F2FF5230212046FFF756FFE7
:103C0400732202212046FFF751FF4FF4C87006F0DB
:103C1400FBF941F61D522E212046FFF747FF0B22E8
:103C240004212046FFF742FFB02206212046FFF779
:103C34003DFF10220A212046FFF738FF00220E2103
:103C44002046FFF733FF43F63C4210212046FFF79E
:103C54002DFF47F67F7222212046FFF727FF3622E9
:103C640024212046FFF722FF012328466372BDE882
:103C7400F08144F2FF0230212046FFF717FF732240
:103C840002212046FFF712FF4FF4C87006F0BCF97A
:103C940041F61D522E212046FFF708FF0822042179
:103CA4002046FFF703FF302206212046FFF7FEFEE1
:103CB400BFE700BF400D002040660301000000453F
:103CC400014A0021FFF720BF0000B80B10B50446DD
:103CD40019B1012911D0002010BD55222021FFF770
:103CE400E5FE0028F7D0E2882046242142F00402B1
:103CF400BDE8104092B2FFF7D9BE40F273122A21F8
:103D0400FFF7D4FE0028E6D0882220212046FFF7C2
:103D1400CDFE0028DFD0E2882046242122F00402D0
:103D2400BDE81040FFF7C2BE38B5054611B380297F
:103D340009D92B7900246BB9224628462221BDE8F3
:103D44003840FFF7B3BEC1F180042B7944EA042460
:103D5400002BF1D0EA8800232421284622F0100207
:103D64002B71FFF7A3FE224628462221BDE83840E6
:103D7400FFF79CBE012347F67F7222210371FFF7F0
:103D840095FEEA882846242142F01002BDE8384016
:103D940092B2FFF78BBE00BF9FED057ADFED057A87
:103DA400E0EE077AFCEEE77A17EE901AFFF7BCBF55
:103DB40000000143EE7CFF3E024A0349034809F038
:103DC400B1BA00BFE00C00206D1D0000181A0020DD
:103DD400024A0349034809F0A5BA00BFE00C0020D9
:103DE4006D1D0000201A0020024A0349034809F00F
:103DF40099BA00BFE00C00206D1D0000281A0020B5
:103E0400024A0349034809F08DBA00BFE00C0020C0
:103E14006D1D0000301A0020024A0349034809F0CE
:103E240081BA00BFE00C00206D1D0000381A00208C
:103E3400024A0349034809F075BA00BFE00C0020A8
:103E44006D1D0000401A0020024A0349034809F08E
:103E540069BA00BFE00C00206D1D0000481A002064
:103E6400024A0349034809F05DBA00BFE00C002090
:103E74006D1D0000501A0020024A0349034809F04E
:103E840051BA00BFE00C00206D1D0000581A00203C
:103E9400024A0349034809F045BA00BFE00C002078
:103EA4006D1D0000601A0020024A0349034809F00E
:103EB40039BA00BFE00C00206D1D0000681A002014
:103EC400474B2DE9F04F1A6883B0464C197904F139
:103ED40040051368444AAB42D17708D2434B1B7860
:103EE400002B4BD04022424B2C4615441A60414BC8
:103EF400DFF810B1D3F80080DFF80CA1DFF80C91E3
:103F0400DBF80030BAF80060B9F80070B8F1000FBF
:103F140000D023BBB8F1000F33D008F104012046D0
:103F2400019301EB46011036FFF70BFD019B24F0D2
:103F34001F04BFF34F8F304A14602034AC42FBD3CC
:103F4400BFF34F8FBFF36F8F1F2E33D8AAF80060D3
:103F54001F2F21D8A9F8007003B0BDE8F08F1A1DF7
:103F640008F104012046019302EB4702103701EBEC
:103F740046011036FFF7C6FC019BD8E72C464035B6
:103F8400B5E72BB3191D2046019301EB4701103708
:103F9400FFF7F7FC019BCAE700241846A9F8004084
:103FA40008F050FB154B1A681C60CBF8002003B0D6
:103FB400BDE8F08F002440460193AAF8004008F0C1
:103FC40041FB0F4A0B4B116814601960019BBFE75A
:103FD400194640222046019309F030FF019BA6E7D1
:103FE400741A00204004202000800E408C1A002007
:103FF40008E200E0841A002070EF00E0881A002034
:10400400901A00207C1A0020701A0020801A0020C8
:10401400F8B50021044608F059FB80B172B61C4A79
:104024001368002B29D01B490D6805B31A4E0027CD
:1040340015600860378062B6184608F003FB204616
:10404400012108F043FB88B172B6144A1368CBB15E
:1040540013490C6874B1134D0026146008602E8057
:1040640062B61846BDE8F84008F0ECBAF8BD08603E
:1040740062B6E4E7086062B6F8BD074910600B80D9
:1040840062B6DCE7074910600B8062B6F8BD00BF7A
:10409400841A0020901A0020701A00207C1A002034
:1040A400881A0020801A0020F8B52C4C2C4AE36FA3
:1040B40043F44023E3679368002B46DBD2F888304F
:1040C400002B42DB002342F210724FF4D25105461A
:1040D4001C200DF001F9E169224A21F440612248D3
:1040E400224B41F40061E161A16A0A4042F0CD0231
:1040F400A2624268134043F4002343602DB91C4B71
:104104000322C3F82021C3F82421194A0326144B9F
:104114000025C2F8286101244FF480301549164A5D
:10412400164F174E1D66DC601F6158619961DA6194
:10413400C3F8E050C3F88C40C3F89060C3F894000F
:10414400C3F89810C3F89C20F8BD30B9084B03227B
:10415400C3F82021C3F82421F8BDF8BD00C00F40E6
:104164000040384000FEFFFF00C00A40F8FFF7FFA0
:1041740000801F401B1F0100001F1F1F010000477C
:1041840001000007F8B5274D00240121264E2846DA
:10419400264F08F039FB264A264B204614601C6043
:1041A400FFF782FF244B0322022040F20111C3F8DF
:1041B400802140222B684FF0060E1E606FF07F06B0
:1041C400DA829880DA83D980DE6029791B4A1C4E12
:1041D400A3F81CE098601F619C829C61194842F816
:1041E4002140194B42F821602A791849C276D3F844
:1041F4008820174F42F01042164C174EC3F88820FF
:10420400996008F0E1FA2B790122387003F01F015C
:1042140003F110055B118A40104944F8256041F808
:104224002320F8BD741A0020400420202240384086
:10423400841A00207C1A002000801F4000C00E4019
:104244001400008000800E400040384001000090BF
:104254008C1A0020002C00203122000000E100E034
:10426400024A0349034809F05DB800BFE00C00208E
:104274006D1D0000741A0020024A0349034809F026
:1042840051B800BFE00C00206D1D0000941A0020FE
:10429400024A0349034809F045B800BFE00C002076
:1042A4006D1D00009C1A0020024A0349034809F0CE
:1042B40039B800BFE00C00206D1D0000A41A0020D6
:1042C400024A0349034809F02DB800BFE00C00205E
:1042D4006D1D0000AC1A0020024A0349034809F08E
:1042E40021B800BFE00C00206D1D0000B41A0020AE
:1042F400024A0349034809F015B800BFE00C002046
:104304006D1D0000BC1A0020024A0349034809F04D
:1043140009B800BFE00C00206D1D0000C41A002085
:10432400024A0349034808F0FDBF00BFE00C002027
:104334006D1D0000CC1A0020024A0349034808F00E
:10434400F1BF00BFE00C00206D1D0000D41A002056
:10435400024A0349034808F0E5BF00BFE00C00200F
:104364006D1D0000DC1A0020024A0349034808F0CE
:10437400D9BF00BFE00C00206D1D0000E41A00202E
:10438400024A0349034808F0CDBF00BFE00C0020F7
:104394006D1D0000EC1A002000207047704700BF1C
:1043A400006910B103689B6A18477047006910B12F
:1043B4000368DB6A18477047006910B103681B691A
:1043C40018477047006910B103689B6918474FF09C
:1043D400FF307047006910B10368DB681847704705
:1043E400006910B10168096B0847704710B400698F
:1043F40020B10468616B5DF8044B08475DF8044B19
:10440400704700BF006910B103689B6B1847002018
:1044140000217047006910B10368DB6B1847002066
:1044240000217047006910B103681B6C184770477E
:10443400006910B103685B6C18477047006910B1DC
:1044440003689B6C18470148704700BFEC050020C7
:10445400006910B10368DB6C1847704738B50B6905
:1044640004462BB11D6819462B6D9847204638BD6C
:104474004FF47A70064A23712373A06022600B699B
:104484002361002BF2D01A69204601321A6138BD2B
:104494001C050020006910B103685B6D1847704764
:1044A400006980B10368012200B583B09B6A0DF1F5
:1044B4000701984720B19DF8070003B05DF804FB9D
:1044C4004FF0FF30F9E74FF0FF30704710B582B07E
:1044D4000468012202AB03F8011D1946E36A9847F8
:1044E40002B010BDC36D0BB101207047006E0030E7
:1044F40018BF0120704700BF10B50446406E18B1C4
:1045040009F0DEF80023636604F12400BDE81040DE
:1045140003F054BE10B504460649074823692246F1
:1045240008F02EFA206920B10368BDE810405B6AE8
:10453400184710BDD4050020F40D0020024602499E
:104544000248136908F01CBAF0050020F40D00209D
:104554002DE9F041002394B04FF47A74264F1A46A3
:104564000546243104A88DF804308DF80C301293DC
:1045740013930294009703F075FE129B002B31D025
:104584006820002608F014FA9DF8043004461B4AFB
:104594004FF47A782430237604A9029B2260E361E5
:1045A400174A9DF80C30626184F820302671267316
:1045B4002661C4F8088003F0BFFD2369114A013362
:1045C400676166662E71C5F808802E732C612361BD
:1045D4002A600D4B04A8009303F0F0FD284614B0A4
:1045E400BDE8F081139B002BCAD1064A2B71AC6045
:1045F4002B732B612A60ECE7F80400207C05002073
:10460400B00400201C050020D4040020C26D62B157
:10461400137803F0080303F0FF000BB3D369506968
:10462400181A48BF6FF000407047016EC9B191F885
:10463400313003F0080303F0FF008BB1D1E9042308
:10464400D1E9000130B4101A4FF000056FF00044B6
:1046540063EB01018D4208BF844200D2204630BC86
:1046640070470846704700BFC36D13B1184602F087
:1046740093BB006E08B100F021BE4FF0FF307047CD
:10468400836C00B583B063B1184601220DF10701B4
:1046940002F0B4FA01280CD19DF8070003B05DF8CC
:1046A40004FBC06C28B101220DF1070100F02CFDC0
:1046B400F0E74FF0FF30F1E7C36D13B1184602F095
:1046C400CDBD006E08B101F0C3BA704700B5836C6C
:1046D40083B08DF8071043B1184601220DF107018C
:1046E40002F0FEFD03B05DF804FBC06C0028F9D0B5
:1046F40001220DF1070101F0B3FC03B05DF804FBE6
:1047040038B5446E0CB1204638BD05464FF4807070
:1047140008F0CEFF0146686680B1E86D0C7028B1E0
:104724004FF4807202F022FF6C6EECE7286E40B109
:104734004FF4807200F000FC6C6EE4E7024C6C668F
:10474400E1E70C46DFE700BFF41A0020C36D9BB11C
:104754001A7812F0700F00D1704710B5044600218A
:10476400184602F06FFC206E28B100220023BDE839
:10477400104000F0B9BD10BD006E0028ECD090F8D8
:10478400313013F0500FE7D00022002300F0ACBD0D
:10479400D0B5C46D8CB1012B08BF002A01D3002011
:1047A400D0BD1146204602F04DFC0028F7D020462B
:1047B40002F05AFD0028F2D0D0BD046E002CEED0D9
:1047C400204600F091FD0028E9D02046BDE8D04005
:1047D40001F0D4BBC36D13B1D86900217047036ED7
:1047E40013B118695969704718461946704700BFD4
:1047F400C36D13B1586900217047036E13B193E878
:104804000300704718461946704700BFC36D13B1C3
:10481400184602F0F3B9006E08B100F075BC4FF011
:10482400FF307047836C13B1184602F0B5BAC06C00
:1048340008B100F043BD4FF0FF307047C36D33B192
:104844001B7813F0700F14BF012000207047006E16
:1048540030B190F8313013F0500F14BF0120002014
:10486400704700BF836C13B1184602F0F7BCC06CEC
:1048740008B101F0EDB97047836C13B1184602F02A
:104884002FBDC06C08B101F0EBBB7047C36D13B111
:10489400184602F025BD006E08B101F0E1BB704777
:1048A400826C62B1137803F0080303F0FF000BB3CA
:1048B400D3695069181A48BF6FF000407047C16C43
:1048C400C9B191F8313003F0080303F0FF008BB154
:1048D400D1E90423D1E9000130B4101A4FF00005E6
:1048E4006FF0004463EB01018D4208BF844200D2A3
:1048F400204630BC70470846704700BFD0B4039CC4
:1049040016461F4634B1012C1ED0022C0DD00020B7
:10491400D0BC7047C46DDCB1012B08BF002AF6D2AD
:1049240020461146D0BC02F08DBBC36DB3B1DA6929
:10493400B61847F10007012F08BF002EE7D2314611
:104944001846D0BC02F07EBBC36D93B15A69EFE741
:10495400006E0028DBD0D0BC00F0C6BC036E002B78
:10496400D5D01846D3E9042392197B41D0BC00F07A
:10497400BBBC036E002BCAD01846D3E9002392199E
:104984007B41E8E7084B026910B50446036042B175
:104994001369013B136123B9006910B103681B6AF1
:1049A4009847204610BD00BF1C05002038B5154AA5
:1049B4000446C36D00F124050260F3B1284603F0F8
:1049C400FDFB606E08B108F07BFE0F4B2846636167
:1049D40003F0F4FB0D4B2269236042B11369013BE0
:1049E400136123B9206910B103681B6A98472046F4
:1049F400682107F0DFFF204638BD036E002BDDD1B0
:104A0400DFE700BF7C050020D40400201C05002043
:104A14000A4B026910B50446036042B11369013BB5
:104A2400136123B9006910B103681B6A98472046D3
:104A3400142107F0BFFF204610BD00BF1C05002055
:104A440038B5134A0446C36D00F124050260D3B19E
:104A5400284603F0B3FB606E08B108F031FE0D4B3D
:104A64002846636103F0AAFB0B4B2269236042B121
:104A74001369013B136123B9206910B103681B6AF0
:104A84009847204638BD036E002BE1D1E3E700BF11
:104A94007C050020D40400201C050020036A2DE9B5
:104AA400F047054633B9AB69EA6903EB4213AB61DE
:104AB400BDE8F08707F072FD06460028F3D0D5F86C
:104AC4001890841CD5F81CE000F142084946D5F83A
:104AD40020C0114F0B0EC1F30F2A37F913005A1CD3
:104AE400CAF5803337F9122000FB03F30AFB0233C3
:104AF40053FB0CF324F8023FA0457144EAD109EBBF
:104B04004E13284631460022AB6107F0C5FD3046FE
:104B1400BDE8F04707F096BD6C02002070B440F287
:104B24000125046825611BB31E46F1B10D780131DE
:104B3400013B6566256FAD0706D4656F013EEDB296
:104B440012B11570013204686569ED07F2D5002BC6
:104B5400EBD16EB101680B6F9B07FCD44B6FDBB2DA
:104B64000AB113700132013EF3E790F83C50DFE7DD
:104B740070BC70470BB1FFF7D1BF70474FF0FF30E7
:104B8400704700BF704700BF30B5D0F884448FB081
:104B9400A4B100250A466846214601238DF8005039
:104BA4008DF801508DF8025002F01AF808B90FB0D0
:104BB40030BD684602F096FE0FB030BDD0F88804D0
:104BC4000028F4D00A460123014668468DF8314096
:104BD4008DF832408DF8334000F07CFE0028E6D09A
:104BE400684600F0E7FE0FB030BD00BF30B5D0F826
:104BF40084448FB07CB100250A46012304F2444169
:104C040068468DF800508DF801508DF8025001F07F
:104C14001FFF0FB030BDD0F888040028F9D00A4631
:104C2400012300F5896168468DF831408DF83240E2
:104C34008DF8334001F0DCF80FB030BD30B5D0F85A
:104C440084448FB074B100250A46684621462B4639
:104C54008DF800508DF801508DF8025001F0C0FF1E
:104C64000FB030BDD0F888040028F9D00A46234696
:104C7400014668468DF831408DF832408DF8334056
:104C840000F028FE0FB030BD38B50546D0F88404D6
:104C9400C0B1C469013C03F0F7F9D5F88434241A8F
:104CA40043B198794FF4007303FA00F080B2A0FB8B
:104CB400040138BDD5F8883463B1D3F83C04A0FBB3
:104CC400040138BDD5F8880420B1D0F8304401F08F
:104CD40093FCE2E70020002138BD00BF30B5D0F8D6
:104CE40084448FB0A4B100250A46684621462B4669
:104CF4008DF800508DF801508DF8025001F070FFCE
:104D040008B90FB030BD684602F06EF90FB030BD7F
:104D1400D0F888040028F4D00A46234601466846A1
:104D24008DF831408DF832408DF8334000F0D2FDDB
:104D34000028E6D0684600F0A9FE0FB030BD00BFE1
:104D440070B5D0F884448EB01646C4B1002504F280
:104D540044440A46684621462B468DF800508DF897
:104D640001508DF8025001F0D7FE08B90EB070BDA5
:104D740032462146684602F045F80EB070BDD0F8C0
:104D840088040028F2D000F589650A46234668465F
:104D940029468DF831408DF832408DF8334000F0CB
:104DA40017FD0028E2D032462946684601F08EF805
:104DB4000EB070BDD0F884244AB191794FF40073D9
:104DC400D0698B4001389BB2A3FB00017047D0F837
:104DD400882432B1D2F83034D2F83C04A3FB000169
:104DE4007047002000217047012B2DE9F041054652
:104DF40094B040D0022B01F1040140F20223684632
:104E040018BF002303F060FA129B002B3CD06820EB
:104E140004AF07F0CDFD9DF804200446214B224940
:104E240000264FF47A78227663612430029B9DF841
:104E34000C2021603946E36184F820202671267312
:104E44002661C4F8088003F077F923691749013310
:104E5400174A66662E71C5F808802E732C6161614D
:104E640023612A60134B3846009303F0A7F92846C0
:104E740014B0BDE8F08144F202230431684603F023
:104E840023FA129B002BC2D1139B002BBFD14FF4EA
:104E94007A71074A2B7104AF2B732B61A9602A60C6
:104EA400E0E700BFB00400207C050020F8040020E7
:104EB4001C050020D4040020134B14491448154A3F
:104EC400F0B40024072701262925C3F894141249B5
:104ED40018601846C3F8A024C3F8A814C3F8AC7427
:104EE40083F8B56483F8B754C3F88444C3F888449A
:104EF40083F89C4483F89D4483F8BA44074A0849DC
:104F0400F0BC08F00FBA00BFF81A0020A406002075
:104F1400240600204C06002000093D00E00C00207F
:104F2400F52E000010B5044600F092FE002384F82C
:104F3400313084F8333010BD2DE9F04300F12403FF
:104F440085B081468846154601AE90F8314093E815
:104F5400070086E80700ACB399F83030012B38D944
:104F640001270024012F3146D9F8200014BF202244
:104F7400402201F0C5FA012824D100223146D9F893
:104F8400200001F0A1FAE8B10378C12B1AD108EB93
:104F9400040E04F10F0C30F8022F631C3F21CAB138
:104FA400AB4217D27E2A1C4698BFD1B263450EF895
:104FB400011BF0D1013799F83020FFB2BA4209D968
:104FC4001C46CFE70023184688F8003005B0BDE83A
:104FD400F08300240023204608F8043005B0BDE81F
:104FE400F08300BF90F831200AB10020704738B533
:104FF4000D4611463822044608F020FF40230120C4
:10500400256284F8313084F8330038BD2DE9F0414D
:105014000878202803D111F8010F2028FBD0516013
:1050240008782F2864D0002862D05C2825D0A0F10D
:105034002204E4B21A2C23D94D1C0026DFF8C4E064
:1050440003E01A2C2EFA04F722D9A0F13E0401360B
:10505400A0F1200CA846012C37460ED97C280CD090
:10506400BCF15E0F09D815F8010BA0F12204A0B120
:105074002F28E4B211D05C28E3D10020BDE8F081F0
:10508400204D25FA04F4E507D6D50020BDE8F081CB
:10509400FC07DAD50020BDE8F0812F2801D02028B4
:1050A40023D1701C0844054610F8014B202CFAD07B
:1050B4002F2CF8D01D609EB10F4417F8013C202B13
:1050C40001D02E2B0AD1731E19441E464BB111F880
:1050D400010D013B2E28F8D02028F6D0FF2ECCDC81
:1050E400334613600120BDE8F081C3F80080E3E794
:1050F400202801D02F2802D100273E46D1E719608D
:105104000023EEE7010100052DE9F04F90F833305C
:1051140083B00546DE0760D55C060E46914640F135
:10512400BE80D5E90001D5E9042310EB090A41F159
:10513400000B5B4508BF5245C0F0B780B9F1000FC2
:1051440074D0AA464C4640F2FF17FAE806012B6ACF
:10515400D3F8382402EA0008C8F3080BB8F1000FAA
:105164006AD150EA010279D195F8312051064CBF39
:10517400D3F83414E969A9614FEA58200239D3F805
:105184002C24BC4293F845E4024401FA0EF1114484
:105194002ED9BBF1000F2BD1D3F81C22914227D07A
:1051A400B4F5806F61D34FF0010C4FEA54280CFA28
:1051B4000EFEC0EB0E00804528BF804691423DD8CC
:1051C40001EB0800824239D203F504700191009387
:1051D40004F0DEFA009B019980BB95F832304FF061
:1051E400FF3043F0020385F8323003B0BDE8F08F9E
:1051F40003F50470002204F09BFA0028EDD0CBF5EF
:10520400007800EB0B013046A04528BFA04642467B
:1052140004F0CAFC404600214644D5E90023801826
:105224005941B4EB0804C5E9000190D10024C4EB52
:10523400090003B0BDE8F08FA9699DE7D3F8140213
:1052440032464346D0F800E0DEF810B0D8470028D4
:10525400C3D04FEA482800214046DDE795F83320C3
:10526400520610D5A969013185E7D3F814023246F4
:105274000368DB6898470028AFD04FF40070002122
:105284004FF40078C8E718465246A96901F064F95A
:1052940040B20028A1DB0BD02B6AA9696CE790F817
:1052A400313018073FF53DAF48E7C0EB020945E749
:1052B40095F8313013F0500FB9D18EE7F0B583B0C3
:1052C4000122044685690DF10701D0E90067FFF763
:1052D4001BFF0128A5610CBF9DF807004FF0FF30AC
:1052E400C4E9006703B0F0BD2DE9F04F90F831E058
:1052F40085B004468569BEF1000F36D016461F46B8
:10530400D0E90001994208BF904265D056EA0703EC
:1053140030D10023A3610120C4E9006705B0BDE8D2
:10532400F08F10F1FF3241F1FF3322FA0CFC03FA43
:1053340008F823FA0AFA50EA01034CEA080C4CEA8A
:105344000A0C4BD0E34549D3CCEB0B0BA94604F133
:1053540018085D464246002DDDD0A169013D206A52
:1053640001F0FAF80028F5D14D460020A56105B0FA
:10537400BDE8F08F1EF0080F27D1236A16F1FF381D
:1053840093F845C447F1FF39C24603930CF1090C65
:10539400CB4694F833905FFA8CFC19F0400FCCF1B3
:1053A40020082AFA0CF2CDE900AB019BACF1200AEB
:1053B40003FA08FB23FA0AF342EA0B0242EA030B5C
:1053C400AFD0E3695B44A361A5E7D4E90423BB42FE
:1053D40008BFB242C9D3D0E70120C8E71EF0400F8E
:1053E40002D1E369A361B1E7039BD3F83434F9E74D
:1053F4002DE9F04F9A4693B090F83130054600926B
:105404002BB991F831300E4613F0500F08D1002318
:10541400184685F8313085F8333013B0BDE8F08F85
:105424001C9B03F00303012B06D0022B00F009811F
:10543400002BECD1012300E002231C9A02F00802A5
:1054440013430193009B002B00F0FD8018460022BB
:10545400514601F043F996F8313002904BB1D6E948
:105464000023134305D0002100220023B161C6E9C3
:1054740000230AF10E03B8494FF0000981FB032110
:10548400DA174C464F460B44C2EBE303DBB20393FB
:1054940002335FFA83FB20220AA93046FFF734FE69
:1054A40000283DD02028B2D19DF828301A0666D4B1
:1054B400002C61D13268B169203A07910892013415
:1054C400E4B26BB3C02B00F09380C12B62D0852B68
:1054D400E1D138220021284608F0B0FC9DF82C3098
:1054E4009DF82920D806304685F8302003F037028D
:1054F40058BF42F0080285F831203368316AB26936
:10550400203B29620AA96A622022AB6296F83330F2
:10551400C3F3801385F82C30FFF7F6FD0028C1D1C2
:105524001C9B99057FF573AF019B9A077FF56FAFBD
:10553400009B002B3FF46BAF5C450CD386E0202826
:105544007FF465AF24B93268B169203A07910892B3
:10555400DCB2A3457AD920220AA93046FFF7D4FD4C
:10556400631C0028EBD13046B76900F0A1FB00288A
:105574003FF44DAFB761ECE75C45A2D29FE7B9F1C8
:10558400000F9FD15C4538BF0024852B83D14FF099
:1055940001099EE7C7EB0A083A4600990AA85FFA90
:1055A40088F8B8F10F0F28BF4FF00F08434601F0F9
:1055B40067F800283CD04744FFB2BA457FF46BAF8C
:1055C4001C9B1B053FF523AF1C9B13F4884F40F035
:1055D400A08095F833309F0700F19B801C9B5B05EE
:1055E4003FF515AF1C9B580400F1B880012014E767
:1055F4009DF82930019A990785F8332003D542F0A4
:10560400400385F833300F99DDE90C23E961C5E9DE
:105614000423DDE91001009BC5E90201002BCFD072
:105624009DF82B30534505D04FF000094F4632E723
:10563400814630E7BDF82C30029A9342F4D100271A
:1056440029E70323F9E6009B029312E796F8333027
:10565400002138222846C3F380130F460DF11C089D
:1056640005F124048DF8243008F0E8FB039A336A2A
:105674000AF11E0602F1010908222B62F6B285F82E
:1056840031205FFA89F9CDF80CA0DDF800A098E884
:10569400070084E8070018460122414600F014FF81
:1056A400044600283FF4B3AE90F90030002BFFF617
:1056B400AEAE2022002108F0C1FB002F67D0012FDD
:1056C40055D0C7EB07130F2E4FF0C1013246A3F19B
:1056D4001E0328BF0F222170DBB252B1023412B272
:1056E400534404EB420213F8011B24F8021BA242A8
:1056F400F9D10137FFB2BB4529D920224146286A96
:1057040000F0FEFE01287FF482AE0F3E286AF6B256
:10571400C2E795F8313013F0110F7FF478AE1C9B7B
:105724005E057FF55FAF95F833309C077FF56FAE6C
:10573400002200232846FFF7D7FD00283FF467AE78
:10574400284600F01BFC00283FF461AE4EE72846D3
:1057540000F07EFA61E600BF898888882846D5E98A
:105764000423FFF7C1FD00287FF440AF4FE6019BFF
:10577400C021032263F03F032170627085F8333047
:105784009DF80C30E370BDF80830A380B1E78523A1
:1057940023700E4B85F8309084F801901B687BB120
:1057A4000DF117020DF11A0106A89847BDF818105B
:1057B400BDF81A209DF8173061812281237598E77E
:1057C40045F221236381E381638292E7FC1F002079
:1057D4002DE9F043064695B000200D4696F83110A9
:1057E40003928DF849008DF84A008DF84B0029B9D1
:1057F400994695F8313013F0500F03D1002015B0BD
:10580400BDE8F083137814462F2B35D04FF00008F1
:10581400214603AB04AA3046FFF7F8FB0028EDD07D
:10582400039B1B78002B3CD09DF810302946059A29
:105834003046CDF80080FFF7DBFD0028DED034468B
:1058440006AF06F1300E2068103454F80C1C3D46A7
:1058540054F8082C103754F8043C74450FC5F2D1A1
:10586400206806AD3860304600F0F2F986F83180E1
:1058740086F83380039CCBE70134039421782F29E5
:10588400FAD0D1B106A8382200212F6A054608F0C3
:10589400D5FA402201230E978DF849208DF84B301C
:1058A400B4E79DF810302946059A3046CDF80090AB
:1058B400FFF79EFD15B0BDE8F083382230462C6A10
:1058C40008F0BCFA40230120346286F8313086F8AF
:1058D400330094E719B101F58961FFF779BF0846F0
:1058E400704700BF90F8313053B930B591F831406A
:1058F40083B00D4614F0500404D1204603B030BDEB
:1059040000207047D5E90045002504F01F042C430E
:1059140002D0184603B030BD00921A46FFF768FD66
:1059240003B030BD8169F8B50446006A01B10131A4
:10593400012200F0FDFC012806462ED90123014670
:10594400206A1A4600F04EFD074630B3A3693BB304
:1059540094F83320510612D5591C8E4226D022F0D9
:105964004002E16984F8332005E0206A00F0FEFD7E
:10597400294690B1A3694D1C99422A46F5D34FF0AC
:10598400FF323146206A00F0F1FD30B1A16969B1FE
:105994003246206A00F0EAFD40B900273846F8BDD7
:1059A40094F8333043F0400384F83330A66138462A
:1059B400F8BD00BF2DE9F04300F1240385B090F851
:1059C4003340054601AE93E8070086E80700A207C6
:1059D4001BD5E969E9B9002401223146286A01345A
:1059E40000F072FD88B10378E4B203F07F03037022
:1059F40095F83030A34231D3002CEDD0202231462B
:105A0400286A00F07DFD0128E6D0002005B0BDE83D
:105A1400F0836306286A1CD590F845240023D5E951
:105A24000289093218F1FF38D2B249F1FF39C2F1C3
:105A34002007A2F1200428FA02F209FA07F729FA4A
:105A440004F43A432243013200F0CCFC0028C2D1D2
:105A5400DBE700F09DFD0028BDD1D6E700232C6ACA
:105A640085F83130204685F8333003F091FE002864
:105A7400CBD004F5047003F08BFE0028C5D0D4F815
:105A8400400403689B699847C0E700BF90F8313031
:105A9400D90601D40020704710B5002288B0002335
:105AA4000446FFF721FC06E0202819D19DF80030B8
:105AB4001A0615D433B1202269462046FFF724FB89
:105AC4000028F1D194F833300822204643F0020331
:105AD40084F8312084F83330FFF76CFF08B010BD30
:105AE400002008B010BD00BF2DE9F04F002787B09B
:105AF40000F1240B06460DF10C08BA463C469BE81F
:105B0400070088E8070000224146306A5FFA87F9F7
:105B140000F0DAFC054630B10378C02B59D0C12B14
:105B24002ED0852B09D096F83230002043F00103A3
:105B340086F8323007B0BDE8F08F96F83120434B39
:105B440002F0370290F801A01B68828083B10DF146
:105B540007020DF10A0102A89847BDF80A20BDF812
:105B640008309DF80710AA8169752A82EB816B823F
:105B7400326A92F8103243F0010382F810322B7823
:105B8400E103A3F18500002241EA5404B0FA80F055
:105B9400012113FA84F340099CB20A44E30303216C
:105BA4001F2A43EA540309D8AC5C012A14FA83F38C
:105BB4009CB201D10028F0D10121EEE7CA4526D0DC
:105BC40020224146306A013700F09AFC01289AD01D
:105BD400A9E796F8333013F0400F437814BF43F02D
:105BE400020323F002034370306AF169D6E9042307
:105BF4006961C5E90223D6E90223C5E9062390F8C1
:105C0400103243F0010380F810322B78B8E759467C
:105C14000122306A00F058FC002884D0356A4480A0
:105C2400284603F0B5FD00283FF47DAF05F5047068
:105C340003F0AEFD00283FF476AFD5F840040368C6
:105C44009B69984700283FF46EAF73E7FC1F002060
:105C540090F8312092B138B590F8332011060FD462
:105C6400056A0446284603F093FD88B994F8323057
:105C7400002043F0010384F8323038BD012070471E
:105C840002F07F0280F83320BDE83840FFF72CBFD4
:105C940005F5047003F07CFD0028E7D0D5F8400436
:105CA40003689B6998470028E0D0012038BD00BFF5
:105CB4002DE9F04190F83130044659065FD48068EC
:105CC400236AD3F83C341844B0F1806F02D3002027
:105CD400BDE8F0812046FFF725FE0028F7D0266AAC
:105CE40096F81032DA074ED44FF0FF33002506F54C
:105CF40008784FF40072C6F81C32294686F8105210
:105D0400404608F09BF8226AA769012692F84514D8
:105D1400023FD2F82C348F401F4416FA01F310D0FE
:105D2400D2F840047919424601350368DB69984783
:105D34000028CCD0226A92F8453406FA03F3AB4229
:105D4400EED894F831305B0614D494F8333000273D
:105D540063F07F0384F83330D2F83C64D4E902233F
:105D6400D4E9040192197B4180197941C4E90223E1
:105D7400C4E904012046BDE8F041FFF769BF006AA9
:105D840000F072FC9CE706F5047003F001FD0028A6
:105D9400AAD19CE791F8313013F0500F01D10020C3
:105DA400704730B540F6022583B013780446526834
:105DB4000095FFF71DFB10B9002003B030BD102380
:105DC400204684F83130FFF773FF0028F4D0A1692E
:105DD400002200232046E161FFF786FAC123204612
:105DE40084F8333003B0BDE83040FFF731BF00BF63
:105DF4002DE9F043064695B000200C4696F8311084
:105E040003928DF849008DF84A008DF84B0029B9AA
:105E1400994694F8313013F0500F03D1002015B097
:105E2400BDE8F083137811462F2B39D04FF00008CA
:105E340003AB04AA3046FFF7E9F80028EED0039B31
:105E44001B78002B3AD09DF810302146059A304635
:105E5400CDF80080FFF7CCFA48B9B9F1000FDDD0D6
:105E6400214604AA3046FFF795FF0028D6D03446D1
:105E740006AF06F1300E2068103454F80C1C3D4671
:105E840054F8082C103754F8043C74450FC5F2D16B
:105E9400206806AC38603046FFF744F80399C7E73A
:105EA400013103910B782F2BFAD0216A06A8FFF752
:105EB40099F80028B2D006AC0399B7E704AA2146A2
:105EC4003046FFF767FF15B0BDE8F083F0B590F8F2
:105ED40031409DB0002314F0180F8DF831308DF847
:105EE40032308DF833308DF869308DF86A308DF8A2
:105EF4006B3003D00B6A046A9C4202D000201DB0B0
:105F0400F0BD044640F601236846FFF761FC002813
:105F1400F4D0254604F1300E0EAF2868103555F83C
:105F24000C1C3E4655F8082C103755F8043C7545B2
:105F34000FC6F2D1286809AA04F1240338609DF839
:105F4400305007CA83E8070094F83330204684F8B9
:105F5400305063F07F0384F83330FFF779FE002874
:105F6400CCD00021022208230EA815918DF86B20B5
:105F74008DF86930FFF71EFDC1E700BF90F833309C
:105F84009A0718D5F0B5C56983B08DB103F0400305
:105F9400044603F0FF0683B98169002942D10195C3
:105FA400C1612946206A00F0F3FA38BB002000E002
:105FB400012003B0F0BD00207047006AA16990F889
:105FC4004524D4E90267093216F1FF36D2B247F10B
:105FD400FF37C2F1200EA2F1200326FA02F207FADB
:105FE4000EFE27FA03F342EA0E021A430132B1B15C
:105FF400013D4B1C691A01930A440ABB94F83330DF
:106004002046D4E9006763F07F03C4E9026784F89B
:106014003330C4E90467FFF71BFE03B0F0BD0195FC
:10602400E161EAE702AA006A42F8046D00F094FA1A
:1060340040B20028BADB0AD1019D002DDED0B0E7C2
:106044000023019900F0CEF90028D7D1AEE74FF034
:10605400FF32A169206A00F089FA0028ECD1A5E793
:106064002DE9F04F90F8333083B004469D07009239
:106074000AD494F832304FF0FF3043F0010384F82F
:10608400323003B0BDE8F08F1A07884600F107816B
:10609400009B002B00F017812146009D4FF0010A60
:1060A400F1E8062393460191206AA169D0F8386487
:1060B40006EA0B06C6F3080956BB002900F0BD80AA
:1060C40094F833305B0640F1D28090F84524E369BC
:1060D4000932D4E902BCD2B21BF1FF3BC2F1200E5B
:1060E400A2F120074CF1FF3C2BFA02F20CFA0EFE4F
:1060F4002CFA07F742EA0E023A431A449142C0F0DE
:10610400B3802046FFF70EFC0028B2D0206AA169B4
:10611400760A0239D0F82C7490F845E4374401FA31
:106124000EF13944B9F1000F5BD1B5F5007F2CBFF6
:1061340000220122002A54D1B5F5806FC0F081807D
:106144000AFA0EFE6B0AD0F81CC2C6EB0E06B34266
:1061540028BF334661454FEA432708D85E18B44543
:1061640005D24FF0FF3680F81022C0F81C62D0F838
:10617400140242460668366AB04700283FF479AFF5
:1061840038460021B844ED1BD4E90023D4E9046760
:1061940012EB000B43EB010C674508BF5E45C4E9F5
:1061A40000BC07D294F8331061F07F01C4E904BC49
:1061B40084F83310002D7FF477AF5A466346D4E950
:1061C4000201994208BF904271D3404B1B68002BD7
:1061D40077D094F83330009863F07F0384F8333039
:1061E4004FE7B9F1000F26D1D4E90423D4E90067BD
:1061F4009F4208BF964234BF0122052200F5047075
:1062040003F096FA00283FF434AFC9F50077484408
:106214004146AF4228BF2F46B9443A4603F0C4FC76
:10622400B9F5007FACD1206A00F5047003F0B0FA30
:106234000028A5D11DE70122E0E7E169F1B1A161E0
:1062440066E7D0F81C32994222D0D0F814024246B4
:106254000368DB69984700283FF40BAF4FF40070E4
:1062640000214FF400778DE70131A16150E7019AD5
:1062740000F072F900287FF449AF42E72046FFF7A7
:1062840051FB00283FF4F5AEA169206AE1613FE7C4
:106294004FF0FF3380F81022C0F81C32D5E7D0E964
:1062A4000423FFF721F800283FF4E3AEF0E694F866
:1062B4003310009861F07F01C4E9022384F833109D
:1062C400DFE60098DDE6D4E9002378E7FC1F002030
:1062D40038B50C46D0F82414154600F50470002295
:1062E40001EBD41103F024FA40B1A400C4F3080470
:1062F40003595A1C04D02B60012038BDFF2038BD3F
:10630400002038BD38B50C46D0F82414154600F5E5
:106314000470012201EBD41103F00AFA034628B1F8
:10632400A4000120C4F308041D5138BD38BD00BFCA
:106334002DE9F84F804691468B46002943D08F1EA5
:10634400D8F830349F423AD207F007050123C7F347
:10635400C80A03FA05F5EDB23E463C46D8F82C14BB
:106364000022404601EB143103F0E2F9C0B110F809
:106374000A100AE04A4529D0A74210D0D8F83024A0
:10638400944216D213F0FF050CD001340D424FEAAB
:106394004503A4EB0602EDD0A7422646EED1012028
:1063A400BDE8F88F0AF1010A0125BAF5007FDED1B4
:1063B40001E0002634464FF0000A0125CEE700270D
:1063C4000125BA46C8E7D0F82074B9E7BBF1000F3D
:1063D40004D1B9F1010F08BFC8F82064B01CBDE8AE
:1063E400F88F00BF2DE9F047023915469A46D0F8D8
:1063F40030244B19934238D88046BAF1000F37D174
:10640400D0F82034994238BFC0F8201401F00704B2
:106414000122D8F82C34C1F3C80602FA04F403EBC1
:106424001139E4B2012249464046914403F080F90F
:10643400D8B1871900F5007017F8012B224282EABF
:1064440004024FEA440414BF0126002656450CD02A
:10645400013D07F8012C17D014F0FF04EED1874258
:1064640026464FF00104E7D1DCE70020BDE8F087C1
:10647400D0F820048342C9D98142C7D8934228BFA7
:106484000023C8F82034C1E70120BDE8F08700BF2D
:1064940070B582B00546002402AE46F8041DD5F856
:1064A400303401990133994202D9002002B070BD01
:1064B40032462846FFF70CFF013440B20028F4DBD3
:1064C400EDD1204602B070BD70B50E460446D0F83A
:1064D400385400F50470496833682940D4F82C54C2
:1064E400023B94F8454405EB5121A340194403F0C1
:1064F4001FF918B17368C3F30803184470BD00BFD3
:1065040070B54C680D46D0F838340646A1181C40C6
:10651400696090F8453422440933DBB222FA03F46B
:106524003CB12B7A3BB12B6801332B60013C002C2E
:10653400F7D1012070BDD6F830342968013399426F
:1065440002D94FF0FF3070BD2A463046FFF7C0FE37
:1065540040B20128EAD070BDD0F8303401338B4208
:1065640001D2FF207047FFF7B3BE00BF01290DD948
:10657400D0F830340133994210B403D900205DF8C7
:10658400044B70475DF8044BFFF7BCBE0020704716
:10659400F0B50C4683B005460F46D5F830340133C8
:1065A4009C4202D9002003B0F0BD214601AA28462E
:1065B400FFF78EFE012C46B221462846F2D9F20F8F
:1065C400F0D1D5F8303401339C42EBD8FFF79AFE72
:1065D400394600230028E5D0621C2846019C0EB1F0
:1065E400A242DAD0D21BFFF7FDFE0028DAD0019CCC
:1065F400002ED8D02746D0E72DE9F8430024804662
:10660400D0F82C6400F5047725463146002238463C
:10661400013603F08DF828B300F1FF3ED8F830C4FA
:1066240005F580591EF8010FFF2813D048B1082240
:10663400012318424FEA430118BF0134013ACBB297
:10664400F7D10835AC4509D94D45DED01EF8010F08
:10665400FF28EBD108350834AC45F5D8C4EB0C0061
:10666400BDE8F883BDE8F88310B50446D0F83414C7
:10667400FFF70EFF94F845340933DBB2984010BDA0
:106684004BB370B444887E2C1FD8134402300A44A0
:10669400194412F8013BE4B2A3F16106A4F16105C7
:1066A400192E94BF20260026192DA3EB060394BFB0
:1066B40020250025DBB2641BE4B29C4205D18A424A
:1066C40006D030F8024F7E2CE3D9002070BC70470E
:1066D400012070BC70470120704700BFD1B1014454
:1066E40030B410F8014BD30343EA5202A4F161031E
:1066F400A4F12005192B98BFECB2814214FA82F25E
:1067040092B24FEAC23343EA520292B2E9D110463E
:1067140030BC70471046704738B50D4604462422F5
:10672400002107F08BFBA560EB79102B08D0202B00
:1067340004D1402301202370A07038BD002038BD4F
:10674400202301202370A07038BD00BF024638B555
:1067540052F8105F04468068294601F035FC50B1B8
:1067640055B123690135AB42A37818BF03F0BF03C9
:1067740063F07F03A37038BDA37843F04003F7E7C9
:106784002DE9F041037803F020032BB903F0FF0453
:106794004169204B994203D900263046BDE8F08177
:1067A4000546FFF7D3FF06460028F5D0A968052261
:1067B4002B698F7901F12400023B4969BB405F18C2
:1067C400394602F0B5FF80460028E5D04FF4007248
:1067D400214607F033FBAB681A79012A10D901244A
:1067E40004E0AB68E4B21A79A24209D91868E11945
:1067F400424601340368DB6998470028F1D1CBE7AE
:106804009B794FF40072696902FA03F311FA83F376
:106814006B61C2E7FFFD1F0010B5044680680A469D
:106824002430A16902F084FF20B1A38803F00F0390
:1068340000EB431010BD00BF30B590F9023083B0B7
:106844000446002B19DBA56805F1240002F0A0FF23
:1068540030B96378002043F00103637003B030BDA6
:1068640005F50D7002F094FF0028F2D02868036843
:106874009B6998470028ECD0F0E70121FFF7CCFF93
:1068840005460028E5D00378E52BE2D023781B07E2
:1068940001D5E369C361236A0B491A0C6B830B6846
:1068A400AA8263B10DF103020DF1060101A8984714
